{
  "_format": "hh-sol-artifact-1",
  "contractName": "HeapOrderbook",
  "sourceName": "contracts/heap.sol",
  "abi": [
    {
      "inputs": [],
      "name": "findMax",
      "outputs": [
        {
          "components": [
            {
              "internalType": "uint256",
              "name": "id",
              "type": "uint256"
            },
            {
              "internalType": "uint256",
              "name": "price",
              "type": "uint256"
            },
            {
              "internalType": "uint256",
              "name": "quantity",
              "type": "uint256"
            }
          ],
          "internalType": "struct HeapOrderbook.Orderbook",
          "name": "",
          "type": "tuple"
        }
      ],
      "stateMutability": "view",
      "type": "function"
    },
    {
      "inputs": [],
      "name": "findMin",
      "outputs": [
        {
          "components": [
            {
              "internalType": "uint256",
              "name": "id",
              "type": "uint256"
            },
            {
              "internalType": "uint256",
              "name": "price",
              "type": "uint256"
            },
            {
              "internalType": "uint256",
              "name": "quantity",
              "type": "uint256"
            }
          ],
          "internalType": "struct HeapOrderbook.Orderbook",
          "name": "",
          "type": "tuple"
        }
      ],
      "stateMutability": "view",
      "type": "function"
    },
    {
      "inputs": [],
      "name": "getHeap",
      "outputs": [
        {
          "components": [
            {
              "internalType": "uint256",
              "name": "id",
              "type": "uint256"
            },
            {
              "internalType": "uint256",
              "name": "price",
              "type": "uint256"
            },
            {
              "internalType": "uint256",
              "name": "quantity",
              "type": "uint256"
            }
          ],
          "internalType": "struct HeapOrderbook.Orderbook[]",
          "name": "",
          "type": "tuple[]"
        }
      ],
      "stateMutability": "view",
      "type": "function"
    },
    {
      "inputs": [],
      "name": "getSortedPrices",
      "outputs": [
        {
          "internalType": "uint256[]",
          "name": "",
          "type": "uint256[]"
        }
      ],
      "stateMutability": "view",
      "type": "function"
    },
    {
      "inputs": [],
      "name": "heapSize",
      "outputs": [
        {
          "internalType": "uint256",
          "name": "",
          "type": "uint256"
        }
      ],
      "stateMutability": "view",
      "type": "function"
    },
    {
      "inputs": [
        {
          "internalType": "uint256",
          "name": "orderId",
          "type": "uint256"
        },
        {
          "internalType": "uint256",
          "name": "price",
          "type": "uint256"
        },
        {
          "internalType": "uint256",
          "name": "quantity",
          "type": "uint256"
        }
      ],
      "name": "insert",
      "outputs": [],
      "stateMutability": "nonpayable",
      "type": "function"
    },
    {
      "inputs": [
        {
          "internalType": "uint256",
          "name": "",
          "type": "uint256"
        }
      ],
      "name": "orderExists",
      "outputs": [
        {
          "internalType": "bool",
          "name": "",
          "type": "bool"
        }
      ],
      "stateMutability": "view",
      "type": "function"
    },
    {
      "inputs": [
        {
          "internalType": "uint256",
          "name": "",
          "type": "uint256"
        }
      ],
      "name": "orderHeap",
      "outputs": [
        {
          "internalType": "uint256",
          "name": "id",
          "type": "uint256"
        },
        {
          "internalType": "uint256",
          "name": "price",
          "type": "uint256"
        },
        {
          "internalType": "uint256",
          "name": "quantity",
          "type": "uint256"
        }
      ],
      "stateMutability": "view",
      "type": "function"
    },
    {
      "inputs": [],
      "name": "popMax",
      "outputs": [],
      "stateMutability": "nonpayable",
      "type": "function"
    },
    {
      "inputs": [],
      "name": "sortPrice",
      "outputs": [],
      "stateMutability": "nonpayable",
      "type": "function"
    },
    {
      "inputs": [
        {
          "internalType": "uint256",
          "name": "",
          "type": "uint256"
        }
      ],
      "name": "sortedPrices",
      "outputs": [
        {
          "internalType": "uint256",
          "name": "",
          "type": "uint256"
        }
      ],
      "stateMutability": "view",
      "type": "function"
    }
  ],
  "bytecode": "0x608060405234801561001057600080fd5b50611559806100206000396000f3fe608060405234801561001057600080fd5b50600436106100a95760003560e01c8063737385ac11610071578063737385ac1461012e5780637a9f326a1461014c57806386317b961461017c578063aac12b4b146101ac578063b43e3303146101b6578063fa7e8dc7146101e8576100a9565b806302a08baf146100ae5780634a803387146100b857806358caa455146100d45780635d3b69b6146100f257806372394ba614610110575b600080fd5b6100b6610206565b005b6100d260048036038101906100cd9190610d61565b610367565b005b6100dc610682565b6040516100e99190610e72565b60405180910390f35b6100fa6106da565b6040516101079190610ed6565b60405180910390f35b610118610769565b6040516101259190610fe2565b60405180910390f35b610136610855565b6040516101439190610ed6565b60405180910390f35b61016660048036038101906101619190611004565b6108e3565b6040516101739190611040565b60405180910390f35b61019660048036038101906101919190611004565b610907565b6040516101a39190611076565b60405180910390f35b6101b4610927565b005b6101d060048036038101906101cb9190611004565b610ae0565b6040516101df93929190611091565b60405180910390f35b6101f0610b0a565b6040516101fd9190611040565b60405180910390f35b60006002541161024b576040517f08c379a000000000000000000000000000000000000000000000000000000000815260040161024290611125565b60405180910390fd5b6000806000600181526020019081526020016000206000015490506000600160008060006001815260200190815260200160002060000154815260200190815260200160002060006101000a81548160ff02191690831515021790555060008060025481526020019081526020016000206000806001815260200190815260200160002060008201548160000155600182015481600101556002820154816002015590505060008060025481526020019081526020016000206000808201600090556001820160009055600282016000905550506002600081548092919061033290611174565b91905055506103416001610b10565b6001600082815260200190815260200160002060006101000a81549060ff021916905550565b600083116103aa576040517f08c379a00000000000000000000000000000000000000000000000000000000081526004016103a1906111e9565b60405180910390fd5b600082116103ed576040517f08c379a00000000000000000000000000000000000000000000000000000000081526004016103e490611255565b60405180910390fd5b60008111610430576040517f08c379a0000000000000000000000000000000000000000000000000000000008152600401610427906112c1565b60405180910390fd5b6001600084815260200190815260200160002060009054906101000a900460ff1615610491576040517f08c379a000000000000000000000000000000000000000000000000000000000815260040161048890611353565b60405180910390fd5b600260008154809291906104a490611373565b919050555060006040518060600160405280858152602001848152602001838152509050806000806002548152602001908152602001600020600082015181600001556020820151816001015560408201518160020155905050600180600086815260200190815260200160002060006101000a81548160ff02191690831515021790555060006002549050600080600060028461054291906113ea565b8152602001908152602001600020604051806060016040529081600082015481526020016001820154815260200160028201548152505090505b6001821180156105a45750806020015160008084815260200190815260200160002060010154105b1561067a5780600080848152602001908152602001600020600082015181600001556020820151816001015560408201518160020155905050826000806002856105ee91906113ea565b815260200190815260200160002060008201518160000155602082015181600101556040820151816002015590505060028261062a91906113ea565b915060008060028461063c91906113ea565b81526020019081526020016000206040518060600160405290816000820154815260200160018201548152602001600282015481525050905061057c565b505050505050565b606060038054806020026020016040519081016040528092919081815260200182805480156106d057602002820191906000526020600020905b8154815260200190600101908083116106bc575b5050505050905090565b6106e2610c9b565b600060025411610727576040517f08c379a000000000000000000000000000000000000000000000000000000000815260040161071e90611125565b60405180910390fd5b60008060025481526020019081526020016000206040518060600160405290816000820154815260200160018201548152602001600282015481525050905090565b6060600060025467ffffffffffffffff8111156107895761078861141b565b5b6040519080825280602002602001820160405280156107c257816020015b6107af610c9b565b8152602001906001900390816107a75790505b5090506000600190505b600254811161084d5760008082815260200190815260200160002060405180606001604052908160008201548152602001600182015481526020016002820154815250508260018361081e919061144a565b8151811061082f5761082e61147e565b5b6020026020010181905250808061084590611373565b9150506107cc565b508091505090565b61085d610c9b565b6000600254116108a2576040517f08c379a000000000000000000000000000000000000000000000000000000000815260040161089990611125565b60405180910390fd5b600080600181526020019081526020016000206040518060600160405290816000820154815260200160018201548152602001600282015481525050905090565b600381815481106108f357600080fd5b906000526020600020016000915090505481565b60016020528060005260406000206000915054906101000a900460ff1681565b6000600190505b600254811015610a1757600080600060018461094a91906114ad565b815260200190815260200160002060010154905060008290505b6001811015801561098957508160008083815260200190815260200160002060010154105b156109dc57600080828152602001908152602001600020600101546000806001846109b491906114ad565b81526020019081526020016000206001018190555080806109d490611174565b915050610964565b816000806001846109ed91906114ad565b81526020019081526020016000206001018190555050508080610a0f90611373565b91505061092e565b5060025467ffffffffffffffff811115610a3457610a3361141b565b5b604051908082528060200260200182016040528015610a625781602001602082028036833780820191505090505b5060039080519060200190610a78929190610cbc565b5060005b600254811015610add57600080600183610a9691906114ad565b81526020019081526020016000206001015460038281548110610abc57610abb61147e565b5b90600052602060002001819055508080610ad590611373565b915050610a7c565b50565b60006020528060005260406000206000915090508060000154908060010154908060020154905083565b60025481565b60008190506000826002610b2491906114e1565b905060006001846002610b3791906114e1565b610b4191906114ad565b90506002548211158015610b7e57506000808481526020019081526020016000206001015460008084815260200190815260200160002060010154105b15610b87578192505b6002548111158015610bc257506000808481526020019081526020016000206001015460008083815260200190815260200160002060010154105b15610bcb578092505b838314610c955760008060008681526020019081526020016000206040518060600160405290816000820154815260200160018201548152602001600282015481525050905060008085815260200190815260200160002060008087815260200190815260200160002060008201548160000155600182015481600101556002820154816002015590505080600080868152602001908152602001600020600082015181600001556020820151816001015560408201518160020155905050610c9384610b10565b505b50505050565b60405180606001604052806000815260200160008152602001600081525090565b828054828255906000526020600020908101928215610cf8579160200282015b82811115610cf7578251825591602001919060010190610cdc565b5b509050610d059190610d09565b5090565b5b80821115610d22576000816000905550600101610d0a565b5090565b600080fd5b6000819050919050565b610d3e81610d2b565b8114610d4957600080fd5b50565b600081359050610d5b81610d35565b92915050565b600080600060608486031215610d7a57610d79610d26565b5b6000610d8886828701610d4c565b9350506020610d9986828701610d4c565b9250506040610daa86828701610d4c565b9150509250925092565b600081519050919050565b600082825260208201905092915050565b6000819050602082019050919050565b610de981610d2b565b82525050565b6000610dfb8383610de0565b60208301905092915050565b6000602082019050919050565b6000610e1f82610db4565b610e298185610dbf565b9350610e3483610dd0565b8060005b83811015610e65578151610e4c8882610def565b9750610e5783610e07565b925050600181019050610e38565b5085935050505092915050565b60006020820190508181036000830152610e8c8184610e14565b905092915050565b606082016000820151610eaa6000850182610de0565b506020820151610ebd6020850182610de0565b506040820151610ed06040850182610de0565b50505050565b6000606082019050610eeb6000830184610e94565b92915050565b600081519050919050565b600082825260208201905092915050565b6000819050602082019050919050565b606082016000820151610f336000850182610de0565b506020820151610f466020850182610de0565b506040820151610f596040850182610de0565b50505050565b6000610f6b8383610f1d565b60608301905092915050565b6000602082019050919050565b6000610f8f82610ef1565b610f998185610efc565b9350610fa483610f0d565b8060005b83811015610fd5578151610fbc8882610f5f565b9750610fc783610f77565b925050600181019050610fa8565b5085935050505092915050565b60006020820190508181036000830152610ffc8184610f84565b905092915050565b60006020828403121561101a57611019610d26565b5b600061102884828501610d4c565b91505092915050565b61103a81610d2b565b82525050565b60006020820190506110556000830184611031565b92915050565b60008115159050919050565b6110708161105b565b82525050565b600060208201905061108b6000830184611067565b92915050565b60006060820190506110a66000830186611031565b6110b36020830185611031565b6110c06040830184611031565b949350505050565b600082825260208201905092915050565b7f4865617020697320656d70747900000000000000000000000000000000000000600082015250565b600061110f600d836110c8565b915061111a826110d9565b602082019050919050565b6000602082019050818103600083015261113e81611102565b9050919050565b7f4e487b7100000000000000000000000000000000000000000000000000000000600052601160045260246000fd5b600061117f82610d2b565b91506000820361119257611191611145565b5b600182039050919050565b7f496e76616c6964204f7264657220494400000000000000000000000000000000600082015250565b60006111d36010836110c8565b91506111de8261119d565b602082019050919050565b60006020820190508181036000830152611202816111c6565b9050919050565b7f496e76616c696420507269636500000000000000000000000000000000000000600082015250565b600061123f600d836110c8565b915061124a82611209565b602082019050919050565b6000602082019050818103600083015261126e81611232565b9050919050565b7f496e76616c6964205175616e7469747900000000000000000000000000000000600082015250565b60006112ab6010836110c8565b91506112b682611275565b602082019050919050565b600060208201905081810360008301526112da8161129e565b9050919050565b7f4f726465722077697468207468652073616d6520494420616c7265616479206560008201527f7869737473000000000000000000000000000000000000000000000000000000602082015250565b600061133d6025836110c8565b9150611348826112e1565b604082019050919050565b6000602082019050818103600083015261136c81611330565b9050919050565b600061137e82610d2b565b91507fffffffffffffffffffffffffffffffffffffffffffffffffffffffffffffffff82036113b0576113af611145565b5b600182019050919050565b7f4e487b7100000000000000000000000000000000000000000000000000000000600052601260045260246000fd5b60006113f582610d2b565b915061140083610d2b565b9250826114105761140f6113bb565b5b828204905092915050565b7f4e487b7100000000000000000000000000000000000000000000000000000000600052604160045260246000fd5b600061145582610d2b565b915061146083610d2b565b925082820390508181111561147857611477611145565b5b92915050565b7f4e487b7100000000000000000000000000000000000000000000000000000000600052603260045260246000fd5b60006114b882610d2b565b91506114c383610d2b565b92508282019050808211156114db576114da611145565b5b92915050565b60006114ec82610d2b565b91506114f783610d2b565b925082820261150581610d2b565b9150828204841483151761151c5761151b611145565b5b509291505056fea26469706673582212201c6a7431dc0a56f243221df5f5b4e3657fe9392b69fc188735c9fe7fe24f483a64736f6c63430008130033",
  "linkReferences": {},
  "deployedLinkReferences": {}
}