{
  "_format": "hh-sol-artifact-1",
  "contractName": "HeapOrderbook",
  "sourceName": "contracts/heap.sol",
  "abi": [
    {
      "inputs": [],
      "name": "findMax",
      "outputs": [
        {
          "components": [
            {
              "internalType": "uint256",
              "name": "id",
              "type": "uint256"
            },
            {
              "internalType": "uint256",
              "name": "price",
              "type": "uint256"
            },
            {
              "internalType": "uint256",
              "name": "quantity",
              "type": "uint256"
            }
          ],
          "internalType": "struct HeapOrderbook.Orderbook",
          "name": "",
          "type": "tuple"
        }
      ],
      "stateMutability": "view",
      "type": "function"
    },
    {
      "inputs": [],
      "name": "findMin",
      "outputs": [
        {
          "components": [
            {
              "internalType": "uint256",
              "name": "id",
              "type": "uint256"
            },
            {
              "internalType": "uint256",
              "name": "price",
              "type": "uint256"
            },
            {
              "internalType": "uint256",
              "name": "quantity",
              "type": "uint256"
            }
          ],
          "internalType": "struct HeapOrderbook.Orderbook",
          "name": "",
          "type": "tuple"
        }
      ],
      "stateMutability": "view",
      "type": "function"
    },
    {
      "inputs": [],
      "name": "getSortedPrices",
      "outputs": [
        {
          "internalType": "uint256[]",
          "name": "",
          "type": "uint256[]"
        }
      ],
      "stateMutability": "view",
      "type": "function"
    },
    {
      "inputs": [],
      "name": "heapSize",
      "outputs": [
        {
          "internalType": "uint256",
          "name": "",
          "type": "uint256"
        }
      ],
      "stateMutability": "view",
      "type": "function"
    },
    {
      "inputs": [
        {
          "internalType": "uint256",
          "name": "orderId",
          "type": "uint256"
        },
        {
          "internalType": "uint256",
          "name": "price",
          "type": "uint256"
        },
        {
          "internalType": "uint256",
          "name": "quantity",
          "type": "uint256"
        }
      ],
      "name": "insert",
      "outputs": [],
      "stateMutability": "nonpayable",
      "type": "function"
    },
    {
      "inputs": [
        {
          "internalType": "uint256",
          "name": "",
          "type": "uint256"
        }
      ],
      "name": "orderExists",
      "outputs": [
        {
          "internalType": "bool",
          "name": "",
          "type": "bool"
        }
      ],
      "stateMutability": "view",
      "type": "function"
    },
    {
      "inputs": [
        {
          "internalType": "uint256",
          "name": "",
          "type": "uint256"
        }
      ],
      "name": "orderHeap",
      "outputs": [
        {
          "internalType": "uint256",
          "name": "id",
          "type": "uint256"
        },
        {
          "internalType": "uint256",
          "name": "price",
          "type": "uint256"
        },
        {
          "internalType": "uint256",
          "name": "quantity",
          "type": "uint256"
        }
      ],
      "stateMutability": "view",
      "type": "function"
    },
    {
      "inputs": [],
      "name": "popMax",
      "outputs": [],
      "stateMutability": "nonpayable",
      "type": "function"
    },
    {
      "inputs": [],
      "name": "sortPrice",
      "outputs": [],
      "stateMutability": "nonpayable",
      "type": "function"
    },
    {
      "inputs": [
        {
          "internalType": "uint256",
          "name": "",
          "type": "uint256"
        }
      ],
      "name": "sortedPrices",
      "outputs": [
        {
          "internalType": "uint256",
          "name": "",
          "type": "uint256"
        }
      ],
      "stateMutability": "view",
      "type": "function"
    }
  ],
  "bytecode": "0x608060405234801561001057600080fd5b5061135c806100206000396000f3fe608060405234801561001057600080fd5b506004361061009e5760003560e01c80637a9f326a116100665780637a9f326a1461012357806386317b9614610153578063aac12b4b14610183578063b43e33031461018d578063fa7e8dc7146101bf5761009e565b806302a08baf146100a35780634a803387146100ad57806358caa455146100c95780635d3b69b6146100e7578063737385ac14610105575b600080fd5b6100ab6101dd565b005b6100c760048036038101906100c29190610cab565b61033e565b005b6100d1610659565b6040516100de9190610dbc565b60405180910390f35b6100ef6106b1565b6040516100fc9190610e20565b60405180910390f35b61010d61073f565b60405161011a9190610e20565b60405180910390f35b61013d60048036038101906101389190610e3b565b6107ce565b60405161014a9190610e77565b60405180910390f35b61016d60048036038101906101689190610e3b565b6107f2565b60405161017a9190610ead565b60405180910390f35b61018b610812565b005b6101a760048036038101906101a29190610e3b565b6109ef565b6040516101b693929190610ec8565b60405180910390f35b6101c7610a19565b6040516101d49190610e77565b60405180910390f35b600060025411610222576040517f08c379a000000000000000000000000000000000000000000000000000000000815260040161021990610f5c565b60405180910390fd5b6000806000600181526020019081526020016000206000015490506000600160008060006001815260200190815260200160002060000154815260200190815260200160002060006101000a81548160ff02191690831515021790555060008060025481526020019081526020016000206000806001815260200190815260200160002060008201548160000155600182015481600101556002820154816002015590505060008060025481526020019081526020016000206000808201600090556001820160009055600282016000905550506002600081548092919061030990610fab565b91905055506103186001610a1f565b6001600082815260200190815260200160002060006101000a81549060ff021916905550565b60008311610381576040517f08c379a000000000000000000000000000000000000000000000000000000000815260040161037890611020565b60405180910390fd5b600082116103c4576040517f08c379a00000000000000000000000000000000000000000000000000000000081526004016103bb9061108c565b60405180910390fd5b60008111610407576040517f08c379a00000000000000000000000000000000000000000000000000000000081526004016103fe906110f8565b60405180910390fd5b6001600084815260200190815260200160002060009054906101000a900460ff1615610468576040517f08c379a000000000000000000000000000000000000000000000000000000000815260040161045f9061118a565b60405180910390fd5b6002600081548092919061047b906111aa565b919050555060006040518060600160405280858152602001848152602001838152509050806000806002548152602001908152602001600020600082015181600001556020820151816001015560408201518160020155905050600180600086815260200190815260200160002060006101000a81548160ff0219169083151502179055506000600254905060008060006002846105199190611221565b8152602001908152602001600020604051806060016040529081600082015481526020016001820154815260200160028201548152505090505b60018211801561057b5750806020015160008084815260200190815260200160002060010154105b156106515780600080848152602001908152602001600020600082015181600001556020820151816001015560408201518160020155905050826000806002856105c59190611221565b81526020019081526020016000206000820151816000015560208201518160010155604082015181600201559050506002826106019190611221565b91506000806002846106139190611221565b815260200190815260200160002060405180606001604052908160008201548152602001600182015481526020016002820154815250509050610553565b505050505050565b606060038054806020026020016040519081016040528092919081815260200182805480156106a757602002820191906000526020600020905b815481526020019060010190808311610693575b5050505050905090565b6106b9610be5565b6000600254116106fe576040517f08c379a00000000000000000000000000000000000000000000000000000000081526004016106f590610f5c565b60405180910390fd5b600080600181526020019081526020016000206040518060600160405290816000820154815260200160018201548152602001600282015481525050905090565b610747610be5565b60006002541161078c576040517f08c379a000000000000000000000000000000000000000000000000000000000815260040161078390610f5c565b60405180910390fd5b60008060025481526020019081526020016000206040518060600160405290816000820154815260200160018201548152602001600282015481525050905090565b600381815481106107de57600080fd5b906000526020600020016000915090505481565b60016020528060005260406000206000915054906101000a900460ff1681565b61081a610baa565b60006002549050600060025490505b600181111561092257600080600060018152602001908152602001600020604051806060016040529081600082015481526020016001820154815260200160028201548152505090506000808381526020019081526020016000206000806001815260200190815260200160002060008201548160000155600182015481600101556002820154816002015590505080600080848152602001908152602001600020600082015181600001556020820151816001015560408201518160020155905050600260008154809291906108ff90610fab565b919050555061090e6001610a1f565b50808061091a90610fab565b915050610829565b50806002819055508067ffffffffffffffff81111561094457610943611252565b5b6040519080825280602002602001820160405280156109725781602001602082028036833780820191505090505b5060039080519060200190610988929190610c06565b5060005b818110156109eb576000806001836109a49190611281565b815260200190815260200160002060010154600382815481106109ca576109c96112b5565b5b906000526020600020018190555080806109e3906111aa565b91505061098c565b5050565b60006020528060005260406000206000915090508060000154908060010154908060020154905083565b60025481565b60008190506000826002610a3391906112e4565b905060006001846002610a4691906112e4565b610a509190611281565b90506002548211158015610a8d57506000808481526020019081526020016000206001015460008084815260200190815260200160002060010154105b15610a96578192505b6002548111158015610ad157506000808481526020019081526020016000206001015460008083815260200190815260200160002060010154105b15610ada578092505b838314610ba45760008060008681526020019081526020016000206040518060600160405290816000820154815260200160018201548152602001600282015481525050905060008085815260200190815260200160002060008087815260200190815260200160002060008201548160000155600182015481600101556002820154816002015590505080600080868152602001908152602001600020600082015181600001556020820151816001015560408201518160020155905050610ba284610a1f565b505b50505050565b600060028054610bba9190611221565b90505b6000811115610be257610bcf81610a1f565b8080610bda90610fab565b915050610bbd565b50565b60405180606001604052806000815260200160008152602001600081525090565b828054828255906000526020600020908101928215610c42579160200282015b82811115610c41578251825591602001919060010190610c26565b5b509050610c4f9190610c53565b5090565b5b80821115610c6c576000816000905550600101610c54565b5090565b600080fd5b6000819050919050565b610c8881610c75565b8114610c9357600080fd5b50565b600081359050610ca581610c7f565b92915050565b600080600060608486031215610cc457610cc3610c70565b5b6000610cd286828701610c96565b9350506020610ce386828701610c96565b9250506040610cf486828701610c96565b9150509250925092565b600081519050919050565b600082825260208201905092915050565b6000819050602082019050919050565b610d3381610c75565b82525050565b6000610d458383610d2a565b60208301905092915050565b6000602082019050919050565b6000610d6982610cfe565b610d738185610d09565b9350610d7e83610d1a565b8060005b83811015610daf578151610d968882610d39565b9750610da183610d51565b925050600181019050610d82565b5085935050505092915050565b60006020820190508181036000830152610dd68184610d5e565b905092915050565b606082016000820151610df46000850182610d2a565b506020820151610e076020850182610d2a565b506040820151610e1a6040850182610d2a565b50505050565b6000606082019050610e356000830184610dde565b92915050565b600060208284031215610e5157610e50610c70565b5b6000610e5f84828501610c96565b91505092915050565b610e7181610c75565b82525050565b6000602082019050610e8c6000830184610e68565b92915050565b60008115159050919050565b610ea781610e92565b82525050565b6000602082019050610ec26000830184610e9e565b92915050565b6000606082019050610edd6000830186610e68565b610eea6020830185610e68565b610ef76040830184610e68565b949350505050565b600082825260208201905092915050565b7f4865617020697320656d70747900000000000000000000000000000000000000600082015250565b6000610f46600d83610eff565b9150610f5182610f10565b602082019050919050565b60006020820190508181036000830152610f7581610f39565b9050919050565b7f4e487b7100000000000000000000000000000000000000000000000000000000600052601160045260246000fd5b6000610fb682610c75565b915060008203610fc957610fc8610f7c565b5b600182039050919050565b7f496e76616c6964204f7264657220494400000000000000000000000000000000600082015250565b600061100a601083610eff565b915061101582610fd4565b602082019050919050565b6000602082019050818103600083015261103981610ffd565b9050919050565b7f496e76616c696420507269636500000000000000000000000000000000000000600082015250565b6000611076600d83610eff565b915061108182611040565b602082019050919050565b600060208201905081810360008301526110a581611069565b9050919050565b7f496e76616c6964205175616e7469747900000000000000000000000000000000600082015250565b60006110e2601083610eff565b91506110ed826110ac565b602082019050919050565b60006020820190508181036000830152611111816110d5565b9050919050565b7f4f726465722077697468207468652073616d6520494420616c7265616479206560008201527f7869737473000000000000000000000000000000000000000000000000000000602082015250565b6000611174602583610eff565b915061117f82611118565b604082019050919050565b600060208201905081810360008301526111a381611167565b9050919050565b60006111b582610c75565b91507fffffffffffffffffffffffffffffffffffffffffffffffffffffffffffffffff82036111e7576111e6610f7c565b5b600182019050919050565b7f4e487b7100000000000000000000000000000000000000000000000000000000600052601260045260246000fd5b600061122c82610c75565b915061123783610c75565b925082611247576112466111f2565b5b828204905092915050565b7f4e487b7100000000000000000000000000000000000000000000000000000000600052604160045260246000fd5b600061128c82610c75565b915061129783610c75565b92508282019050808211156112af576112ae610f7c565b5b92915050565b7f4e487b7100000000000000000000000000000000000000000000000000000000600052603260045260246000fd5b60006112ef82610c75565b91506112fa83610c75565b925082820261130881610c75565b9150828204841483151761131f5761131e610f7c565b5b509291505056fea264697066735822122086cfcd84dc3b7b1a4dcc2d1b92df8040e94618895ca41f95a3f516b72353ffb464736f6c63430008130033",
  "linkReferences": {},
  "deployedLinkReferences": {}
}